{
  "address": "0x5FbDB2315678afecb367f032d93F642f64180aa3",
  "abi": [
    {
      "inputs": [],
      "stateMutability": "nonpayable",
      "type": "constructor"
    },
    {
      "anonymous": false,
      "inputs": [
        {
          "indexed": false,
          "internalType": "address",
          "name": "proxy",
          "type": "address"
        }
      ],
      "name": "ProxyCreated",
      "type": "event"
    },
    {
      "inputs": [
        {
          "internalType": "address",
          "name": "instance",
          "type": "address"
        },
        {
          "internalType": "bytes",
          "name": "data",
          "type": "bytes"
        },
        {
          "internalType": "bytes",
          "name": "salt",
          "type": "bytes"
        }
      ],
      "name": "create",
      "outputs": [
        {
          "internalType": "address",
          "name": "",
          "type": "address"
        }
      ],
      "stateMutability": "nonpayable",
      "type": "function"
    },
    {
      "inputs": [
        {
          "internalType": "address",
          "name": "_logic",
          "type": "address"
        },
        {
          "internalType": "bytes",
          "name": "_data",
          "type": "bytes"
        },
        {
          "internalType": "bytes",
          "name": "salt",
          "type": "bytes"
        }
      ],
      "name": "deployMinimal",
      "outputs": [
        {
          "internalType": "address",
          "name": "instance",
          "type": "address"
        }
      ],
      "stateMutability": "nonpayable",
      "type": "function"
    }
  ],
  "transactionHash": "0xd97bf1076032ede8dd4a74a7e3c3aecbfed7b062428b22b13afb65c6dbe9132b",
  "args": [],
  "solcInputHash": "69485b474c004aeb4737eb9717ea0692",
  "bytecode": "0x608060405234801561001057600080fd5b5061051c806100206000396000f3fe608060405234801561001057600080fd5b50600436106100365760003560e01c8063827438141461003b5780638348088a14610064575b600080fd5b61004e610049366004610319565b610077565b60405161005b9190610441565b60405180910390f35b61004e610072366004610397565b6100f9565b6000806100ee8787878080601f01602080910402602001604051908101604052809392919081815260200183838082843760009201919091525050604080516020601f8b0181900481028201810190925289815292508991508890819084018382808284376000920191909152506100f992505050565b979650505050505050565b6000604051733d602d80600a3d3981f3363d3d373d3d3d363d7360601b81528460601b60148201526e5af43d82803e903d91602b57fd5bf360881b6028820152826037826000f59150506001600160a01b0381166101725760405162461bcd60e51b815260040161016990610455565b60405180910390fd5b7efffc2da0b561cae30d9826d37709e9421c4725faebc226cbbb7ef5fc5e7349816040516101a09190610441565b60405180910390a182511561022e576000816001600160a01b0316846040516101c99190610408565b6000604051808303816000865af19150503d8060008114610206576040519150601f19603f3d011682016040523d82523d6000602084013e61020b565b606091505b505090508061022c5760405162461bcd60e51b81526004016101699061048c565b505b9392505050565b80356001600160a01b038116811461024c57600080fd5b919050565b60008083601f840112610262578081fd5b50813567ffffffffffffffff811115610279578182fd5b60208301915083602082850101111561029157600080fd5b9250929050565b600082601f8301126102a8578081fd5b813567ffffffffffffffff808211156102c3576102c36104d0565b604051601f8301601f1916810160200182811182821017156102e7576102e76104d0565b6040528281528483016020018610156102fe578384fd5b82602086016020830137918201602001929092529392505050565b600080600080600060608688031215610330578081fd5b61033986610235565b9450602086013567ffffffffffffffff80821115610355578283fd5b61036189838a01610251565b90965094506040880135915080821115610379578283fd5b5061038688828901610251565b969995985093965092949392505050565b6000806000606084860312156103ab578283fd5b6103b484610235565b9250602084013567ffffffffffffffff808211156103d0578384fd5b6103dc87838801610298565b935060408601359150808211156103f1578283fd5b506103fe86828701610298565b9150509250925092565b60008251815b81811015610428576020818601810151858301520161040e565b818111156104365782828501525b509190910192915050565b6001600160a01b0391909116815260200190565b60208082526017908201527f455243313136373a2063726561746532206661696c6564000000000000000000604082015260600190565b60208082526024908201527f50726f7879466163746f72792f636f6e7374727563746f722d63616c6c2d66616040820152631a5b195960e21b606082015260800190565b634e487b7160e01b600052604160045260246000fdfea26469706673582212206819f7d8f93098d92a0f5a49245a2b64d045658054ce7a3fb8d4e422e9fd6f2364736f6c63430008000033",
  "devdoc": {
    "kind": "dev",
    "methods": {},
    "title": "PoolTogether Generic Minimal ProxyFactory",
    "version": 1
  },
  "userdoc": {
    "kind": "user",
    "methods": {},
    "notice": "EIP-1167 Minimal proxy factory pattern for creating proxy contracts",
    "version": 1
  },
  "storageLayout": {
    "storage": [],
    "types": null
  }
}