{
  "address": "0xf1aD449778D73B5d417B4a4a0Bb36F09B09418E2",
  "abi": [
    {
      "inputs": [],
      "stateMutability": "nonpayable",
      "type": "constructor"
    },
    {
      "anonymous": false,
      "inputs": [
        {
          "indexed": false,
          "internalType": "address",
          "name": "proxy",
          "type": "address"
        }
      ],
      "name": "ProxyCreated",
      "type": "event"
    },
    {
      "inputs": [
        {
          "internalType": "address",
          "name": "instance",
          "type": "address"
        },
        {
          "internalType": "bytes",
          "name": "data",
          "type": "bytes"
        }
      ],
      "name": "create",
      "outputs": [
        {
          "internalType": "address",
          "name": "",
          "type": "address"
        }
      ],
      "stateMutability": "nonpayable",
      "type": "function"
    },
    {
      "inputs": [
        {
          "internalType": "address",
          "name": "_logic",
          "type": "address"
        },
        {
          "internalType": "bytes",
          "name": "_data",
          "type": "bytes"
        }
      ],
      "name": "deployMinimal",
      "outputs": [
        {
          "internalType": "address",
          "name": "proxy",
          "type": "address"
        }
      ],
      "stateMutability": "nonpayable",
      "type": "function"
    }
  ],
  "transactionHash": "0x7b864cfee7159425284ea8e8962fa92b59f015fcf348cb16f5820c411142e48e",
  "args": [],
  "solcInputHash": "6fdd398f2e53db3d701db9cf2b881c6d",
  "bytecode": "0x608060405234801561001057600080fd5b506103af806100206000396000f3fe608060405234801561001057600080fd5b50600436106100365760003560e01c8063a3f697ba1461003b578063b3eeb5e2146100d7575b600080fd5b6100bb6004803603604081101561005157600080fd5b6001600160a01b03823516919081019060408101602082013564010000000081111561007c57600080fd5b82018360208201111561008e57600080fd5b803590602001918460018302840111640100000000831117156100b057600080fd5b50909250905061018d565b604080516001600160a01b039092168252519081900360200190f35b6100bb600480360360408110156100ed57600080fd5b6001600160a01b03823516919081019060408101602082013564010000000081111561011857600080fd5b82018360208201111561012a57600080fd5b8035906020019184600183028401116401000000008311171561014c57600080fd5b91908080601f0160208091040260200160405190810160405280939291908181526020018383808284376000920191909152509295506101d9945050505050565b6000806101d08585858080601f0160208091040260200160405190810160405280939291908181526020018383808284376000920191909152506101d992505050565b95945050505050565b6000808360601b9050604051733d602d80600a3d3981f3363d3d373d3d3d363d7360601b81528160148201526e5af43d82803e903d91602b57fd5bf360881b60288201526037816000f0604080516001600160a01b038316815290519194507efffc2da0b561cae30d9826d37709e9421c4725faebc226cbbb7ef5fc5e7349925081900360200190a182511561034e576000826001600160a01b0316846040518082805190602001908083835b602083106102a55780518252601f199092019160209182019101610286565b6001836020036101000a0380198251168184511680821785525050505050509050019150506000604051808303816000865af19150503d8060008114610307576040519150601f19603f3d011682016040523d82523d6000602084013e61030c565b606091505b505090508061034c5760405162461bcd60e51b81526004018080602001828103825260248152602001806103566024913960400191505060405180910390fd5b505b509291505056fe50726f7879466163746f72792f636f6e7374727563746f722d63616c6c2d6661696c6564a26469706673582212208c73a27037756d7820e2205c6d70e6d897aaacf76a57f908da99f62eecbb0dc464736f6c634300060c0033",
  "devdoc": {
    "kind": "dev",
    "methods": {},
    "title": "PoolTogether Generic Minimal ProxyFactory",
    "version": 1
  },
  "userdoc": {
    "kind": "user",
    "methods": {},
    "notice": "EIP-1167 Minimal proxy factory pattern for creating proxy contracts",
    "version": 1
  },
  "storageLayout": {
    "storage": [],
    "types": null
  }
}